{
  "contractName": "Faucet",
  "abi": [
    {
      "inputs": [],
      "payable": false,
      "stateMutability": "nonpayable",
      "type": "constructor"
    },
    {
      "constant": false,
      "inputs": [
        {
          "internalType": "string",
          "name": "name",
          "type": "string"
        }
      ],
      "name": "locationSelection",
      "outputs": [],
      "payable": false,
      "stateMutability": "nonpayable",
      "type": "function"
    },
    {
      "constant": false,
      "inputs": [
        {
          "internalType": "uint256",
          "name": "total",
          "type": "uint256"
        }
      ],
      "name": "donationAmount",
      "outputs": [],
      "payable": false,
      "stateMutability": "nonpayable",
      "type": "function"
    },
    {
      "constant": false,
      "inputs": [],
      "name": "donate",
      "outputs": [],
      "payable": true,
      "stateMutability": "payable",
      "type": "function"
    }
  ],
  "bytecode": "0x608060405234801561001057600080fd5b5033600360006101000a81548173ffffffffffffffffffffffffffffffffffffffff021916908373ffffffffffffffffffffffffffffffffffffffff160217905550600060056000600360009054906101000a900473ffffffffffffffffffffffffffffffffffffffff1673ffffffffffffffffffffffffffffffffffffffff1673ffffffffffffffffffffffffffffffffffffffff16815260200190815260200160002060000160006101000a81548160ff021916908315150217905550600060056000600360009054906101000a900473ffffffffffffffffffffffffffffffffffffffff1673ffffffffffffffffffffffffffffffffffffffff1673ffffffffffffffffffffffffffffffffffffffff16815260200190815260200160002060000160016101000a81548160ff021916908315150217905550600060056000600360009054906101000a900473ffffffffffffffffffffffffffffffffffffffff1673ffffffffffffffffffffffffffffffffffffffff1673ffffffffffffffffffffffffffffffffffffffff1681526020019081526020016000206001018190555060405180602001604052806000815250600690805190602001906101db9291906101e9565b50600060078190555061028e565b828054600181600116156101000203166002900490600052602060002090601f016020900481019282601f1061022a57805160ff1916838001178555610258565b82800160010185558215610258579182015b8281111561025757825182559160200191906001019061023c565b5b5090506102659190610269565b5090565b61028b91905b8082111561028757600081600090555060010161026f565b5090565b90565b6106eb8061029d6000396000f3fe6080604052600436106100345760003560e01c80638a96ce6f14610039578063cbc7df8814610101578063ed88c68e1461013c575b600080fd5b34801561004557600080fd5b506100ff6004803603602081101561005c57600080fd5b810190808035906020019064010000000081111561007957600080fd5b82018360208201111561008b57600080fd5b803590602001918460018302840111640100000000831117156100ad57600080fd5b91908080601f016020809104026020016040519081016040528093929190818152602001838380828437600081840152601f19601f820116905080830192505050505050509192919290505050610146565b005b34801561010d57600080fd5b5061013a6004803603602081101561012457600080fd5b81019080803590602001909291905050506101dd565b005b6101446102cd565b005b600160056000600360009054906101000a900473ffffffffffffffffffffffffffffffffffffffff1673ffffffffffffffffffffffffffffffffffffffff1673ffffffffffffffffffffffffffffffffffffffff16815260200190815260200160002060000160006101000a81548160ff02191690831515021790555080600690805190602001906101d9929190610591565b5050565b600160056000600360009054906101000a900473ffffffffffffffffffffffffffffffffffffffff1673ffffffffffffffffffffffffffffffffffffffff1673ffffffffffffffffffffffffffffffffffffffff16815260200190815260200160002060000160016101000a81548160ff0219169083151502179055508060056000600360009054906101000a900473ffffffffffffffffffffffffffffffffffffffff1673ffffffffffffffffffffffffffffffffffffffff1673ffffffffffffffffffffffffffffffffffffffff168152602001908152602001600020600101819055508060078190555050565b60056000600360009054906101000a900473ffffffffffffffffffffffffffffffffffffffff1673ffffffffffffffffffffffffffffffffffffffff1673ffffffffffffffffffffffffffffffffffffffff16815260200190815260200160002060000160009054906101000a900460ff1661034857600080fd5b60056000600360009054906101000a900473ffffffffffffffffffffffffffffffffffffffff1673ffffffffffffffffffffffffffffffffffffffff1673ffffffffffffffffffffffffffffffffffffffff16815260200190815260200160002060000160019054906101000a900460ff166103c357600080fd5b604051806060016040528060068054600181600116156101000203166002900480601f0160208091040260200160405190810160405280929190818152602001828054600181600116156101000203166002900480156104645780601f1061043957610100808354040283529160200191610464565b820191906000526020600020905b81548152906001019060200180831161044757829003601f168201915b505050505081526020016007548152602001600860009054906101000a900473ffffffffffffffffffffffffffffffffffffffff1673ffffffffffffffffffffffffffffffffffffffff168152506000808201518160000190805190602001906104cf929190610611565b506020820151816001015560408201518160020160006101000a81548173ffffffffffffffffffffffffffffffffffffffff021916908373ffffffffffffffffffffffffffffffffffffffff160217905550905050600860009054906101000a900473ffffffffffffffffffffffffffffffffffffffff1673ffffffffffffffffffffffffffffffffffffffff166108fc6007549081150290604051600060405180830381858888f1935050505015801561058e573d6000803e3d6000fd5b50565b828054600181600116156101000203166002900490600052602060002090601f016020900481019282601f106105d257805160ff1916838001178555610600565b82800160010185558215610600579182015b828111156105ff5782518255916020019190600101906105e4565b5b50905061060d9190610691565b5090565b828054600181600116156101000203166002900490600052602060002090601f016020900481019282601f1061065257805160ff1916838001178555610680565b82800160010185558215610680579182015b8281111561067f578251825591602001919060010190610664565b5b50905061068d9190610691565b5090565b6106b391905b808211156106af576000816000905550600101610697565b5090565b9056fea265627a7a7231582014b2f1d505807ccbd59f307a36fc39fa1ccaf7d96f27261fa12444b5cbe9494164736f6c63430005100032",
  "source": "// //SPDX-License-Identifier: MIT\n// pragma solidity >=0.4.22 <=0.9.0;\n// contract Faucet {\n\n//     address owner; //deployer address\n//     //address payable[] countryAddresses; //country addresses for each wallet \n//     uint value; //amount user wants to send\n    \n  \n//     constructor(address payable[] memory addresses_) public {\n//         owner = msg.sender;\n//         //countryAddresses = addresses_;\n//         value = 0;\n//     }\n\n//     struct Country {\n//         uint Wallet;\n//         uint id;\n//         address payable currentCountry;\n//     }\n\n//     Country country;\n//     mapping(uint => Country) public countries;\n\n//     function populateCountries(uint id) public returns (uint index){\n//         if(id == 0){\n//             countries[id].currentCountry = payable(0xdA9C2a08dfbe45884a3C0D98F3E5C93486b78dD3);\n//             countries[id].id = id;\n//             countries[id].Wallet = 0;\n//             return id;\n//         } else if(id == 1){\n//             countries[id].currentCountry = payable(0x4fD39dA788e988F40a65467cefd8000bfbdE38db);\n//             countries[id].id = id;\n//             countries[id].Wallet = 0;\n//             return id;\n//         } else if(id == 2){\n//             countries[id].currentCountry = payable(0x067446404781187064cEcF933e75c972b9b5fdF0);\n//             countries[id].id = id;\n//             countries[id].Wallet = 0;\n//             return id;\n//         } else if(id == 3){\n//             countries[id].currentCountry = payable(0x07d80AFd56Be11deb92798193860b51711b54213);\n//             countries[id].id = id;\n//             countries[id].Wallet = 0;\n//             return id;\n//         } else if(id == 4){\n//             countries[id].currentCountry = payable(0x47432f243FE438e8505092dD3d3b4c4A775F3e88);\n//             countries[id].id = id;\n//             countries[id].Wallet = 0;\n//             return id;\n//         } else if(id == 5){\n//             countries[id].currentCountry = payable(0xe8aD7553fE29415086842ca17eE1D81d886B6e9a);\n//             countries[id].id = id;\n//             countries[id].Wallet = 0;\n//             return id;\n//         } else if(id == 6){\n//             countries[id].currentCountry = payable(0x903164A2dF153ccb9CD549F03aAb5Dbc8E8AE8C9);\n//             countries[id].id = id;\n//             countries[id].Wallet = 0;\n//             return id;\n//         } else if(id == 7){\n//             countries[id].currentCountry = payable(0xc37bA4643C5d451170289f84045F6bc0C26C79d0);\n//             countries[id].id = id;\n//             countries[id].Wallet = 0;\n//             return id;\n//         } else if(id == 8){\n//             countries[id].currentCountry = payable(0x3188194F9BC101278D67dFc2C5E6F4b63BEBBf00);\n//             countries[id].id = id;\n//             countries[id].Wallet = 0;\n//             return id;\n//         } else if(id == 9){\n//             countries[id].currentCountry = payable(0xa5766861A73c68fD3741E7808703EF2e97d2D4Ac);\n//             countries[id].id = id;\n//             countries[id].Wallet = 0;\n//             return id;\n//         }\n//     }\n\n//     function getAmount(uint _amount) public returns (uint){\n//         return value = _amount;\n//     }\n\n//     function viewUser() public view returns(address){\n//         return owner;\n//     }\n\n//     function payCountry(uint id) public payable {\n//         countries[id] = country;\n//         country.Wallet += value;\n//         country.currentCountry.transfer(value);\n//     }\n\n//     // function closeContract() public { \n//     //     selfdestruct(owner);\n//     // }\n\n//     receive() external payable {}\n    \n// }\n\n\n\npragma solidity >=0.4.22 <=0.9.0;\n\ncontract Faucet {\n\n    struct User {\n        bool location;\n        bool donation;\n        uint amount;\n    }\n\n    struct Country {\n        string Name;\n        uint Wallet;\n        address payable currentCountry;\n    }\n\n    Country country;\n\n    address owner;                          // deployer address\n    address payable[] countryAddresses;     // country addresses for each wallet \n    mapping(address => User) users;         // keeps track if user chose a location and donation amount\n    \n    string countryName;                     // stores country name\n    uint amount;                            // stores amount donated\n    address payable countryAddress;         // address of country\n\n    constructor () public {\n        owner = msg.sender;\n        users[owner].location = false;\n        users[owner].donation = false;\n        users[owner].amount = 0;\n        // countryAddress = 0x0000000000000000000000000000000000000000;\n        countryName = '';\n        amount = 0;\n    }\n\n    function locationSelection(string memory name) public {\n        users[owner].location = true;\n        countryName = name;\n    }\n\n    function donationAmount(uint total) public {\n        users[owner].donation = true;\n        users[owner].amount = total;\n        amount = total;\n    }\n\n    function donate() public payable {\n\n        require(users[owner].location);\n        require(users[owner].donation);\n\n        country = Country(countryName, amount, countryAddress);\n\n        countryAddress.transfer(amount);\n    }\n\n}",
  "sourcePath": "/Users/brianwoo/Fall 2022/Blockchain/LeakyFaucet/contracts/contracts/Faucet.sol",
  "compiler": {
    "name": "solc",
    "version": "0.5.16+commit.9c3226ce.Emscripten.clang"
  },
  "schemaVersion": "3.4.10",
  "updatedAt": "2022-11-15T04:25:59.743Z",
  "networkType": "ethereum",
  "devdoc": {
    "methods": {}
  },
  "userdoc": {
    "methods": {}
  }
}