{
  "contractName": "Contract",
  "abi": [
    {
      "inputs": [
        {
          "internalType": "uint256",
          "name": "_value",
          "type": "uint256"
        }
      ],
      "stateMutability": "nonpayable",
      "type": "constructor"
    },
    {
      "inputs": [
        {
          "internalType": "uint256",
          "name": "",
          "type": "uint256"
        }
      ],
      "name": "countries",
      "outputs": [
        {
          "internalType": "uint256",
          "name": "Wallet",
          "type": "uint256"
        },
        {
          "internalType": "uint256",
          "name": "id",
          "type": "uint256"
        },
        {
          "internalType": "address payable",
          "name": "currentCountry",
          "type": "address"
        }
      ],
      "stateMutability": "view",
      "type": "function"
    },
    {
      "stateMutability": "payable",
      "type": "receive"
    },
    {
      "inputs": [
        {
          "internalType": "uint256",
          "name": "id",
          "type": "uint256"
        }
      ],
      "name": "populateCountries",
      "outputs": [
        {
          "internalType": "uint256",
          "name": "index",
          "type": "uint256"
        }
      ],
      "stateMutability": "nonpayable",
      "type": "function"
    },
    {
      "inputs": [
        {
          "internalType": "uint256",
          "name": "_amount",
          "type": "uint256"
        }
      ],
      "name": "getAmount",
      "outputs": [
        {
          "internalType": "uint256",
          "name": "",
          "type": "uint256"
        }
      ],
      "stateMutability": "nonpayable",
      "type": "function"
    },
    {
      "inputs": [],
      "name": "viewUser",
      "outputs": [
        {
          "internalType": "address",
          "name": "",
          "type": "address"
        }
      ],
      "stateMutability": "view",
      "type": "function"
    },
    {
      "inputs": [
        {
          "internalType": "uint256",
          "name": "id",
          "type": "uint256"
        }
      ],
      "name": "payCountry",
      "outputs": [],
      "stateMutability": "payable",
      "type": "function"
    },
    {
      "inputs": [],
      "name": "closeContract",
      "outputs": [],
      "stateMutability": "nonpayable",
      "type": "function"
    }
  ],
  "bytecode": "0x608060405234801561001057600080fd5b50604051610d14380380610d14833981810160405281019061003291906100ba565b336000806101000a81548173ffffffffffffffffffffffffffffffffffffffff021916908373ffffffffffffffffffffffffffffffffffffffff16021790555080600181905550506100e7565b600080fd5b6000819050919050565b61009781610084565b81146100a257600080fd5b50565b6000815190506100b48161008e565b92915050565b6000602082840312156100d0576100cf61007f565b5b60006100de848285016100a5565b91505092915050565b610c1e806100f66000396000f3fe6080604052600436106100595760003560e01c806308e9daa5146100655780635760e20b146100a4578063610be654146100cf57806376c47537146100e6578063959f3579146101235780639980ec861461013f57610060565b3661006057005b600080fd5b34801561007157600080fd5b5061008c60048036038101906100879190610a7a565b61017c565b60405161009b93929190610af7565b60405180910390f35b3480156100b057600080fd5b506100b96101c6565b6040516100c69190610b4f565b60405180910390f35b3480156100db57600080fd5b506100e46101ef565b005b3480156100f257600080fd5b5061010d60048036038101906101089190610a7a565b610228565b60405161011a9190610b6a565b60405180910390f35b61013d60048036038101906101389190610a7a565b61090f565b005b34801561014b57600080fd5b5061016660048036038101906101619190610a7a565b610a30565b6040516101739190610b6a565b60405180910390f35b60056020528060005260406000206000915090508060000154908060010154908060020160009054906101000a900473ffffffffffffffffffffffffffffffffffffffff16905083565b60008060009054906101000a900473ffffffffffffffffffffffffffffffffffffffff16905090565b60008054906101000a900473ffffffffffffffffffffffffffffffffffffffff1673ffffffffffffffffffffffffffffffffffffffff16ff5b60008082036102d95773da9c2a08dfbe45884a3c0d98f3e5c93486b78dd36005600084815260200190815260200160002060020160006101000a81548173ffffffffffffffffffffffffffffffffffffffff021916908373ffffffffffffffffffffffffffffffffffffffff1602179055508160056000848152602001908152602001600020600101819055506000600560008481526020019081526020016000206000018190555081905061090a565b6001820361038957734fd39da788e988f40a65467cefd8000bfbde38db6005600084815260200190815260200160002060020160006101000a81548173ffffffffffffffffffffffffffffffffffffffff021916908373ffffffffffffffffffffffffffffffffffffffff1602179055508160056000848152602001908152602001600020600101819055506000600560008481526020019081526020016000206000018190555081905061090a565b600282036104395773067446404781187064cecf933e75c972b9b5fdf06005600084815260200190815260200160002060020160006101000a81548173ffffffffffffffffffffffffffffffffffffffff021916908373ffffffffffffffffffffffffffffffffffffffff1602179055508160056000848152602001908152602001600020600101819055506000600560008481526020019081526020016000206000018190555081905061090a565b600382036104e9577307d80afd56be11deb92798193860b51711b542136005600084815260200190815260200160002060020160006101000a81548173ffffffffffffffffffffffffffffffffffffffff021916908373ffffffffffffffffffffffffffffffffffffffff1602179055508160056000848152602001908152602001600020600101819055506000600560008481526020019081526020016000206000018190555081905061090a565b60048203610599577347432f243fe438e8505092dd3d3b4c4a775f3e886005600084815260200190815260200160002060020160006101000a81548173ffffffffffffffffffffffffffffffffffffffff021916908373ffffffffffffffffffffffffffffffffffffffff1602179055508160056000848152602001908152602001600020600101819055506000600560008481526020019081526020016000206000018190555081905061090a565b600582036106495773e8ad7553fe29415086842ca17ee1d81d886b6e9a6005600084815260200190815260200160002060020160006101000a81548173ffffffffffffffffffffffffffffffffffffffff021916908373ffffffffffffffffffffffffffffffffffffffff1602179055508160056000848152602001908152602001600020600101819055506000600560008481526020019081526020016000206000018190555081905061090a565b600682036106f95773903164a2df153ccb9cd549f03aab5dbc8e8ae8c96005600084815260200190815260200160002060020160006101000a81548173ffffffffffffffffffffffffffffffffffffffff021916908373ffffffffffffffffffffffffffffffffffffffff1602179055508160056000848152602001908152602001600020600101819055506000600560008481526020019081526020016000206000018190555081905061090a565b600782036107a95773c37ba4643c5d451170289f84045f6bc0c26c79d06005600084815260200190815260200160002060020160006101000a81548173ffffffffffffffffffffffffffffffffffffffff021916908373ffffffffffffffffffffffffffffffffffffffff1602179055508160056000848152602001908152602001600020600101819055506000600560008481526020019081526020016000206000018190555081905061090a565b6008820361085957733188194f9bc101278d67dfc2c5e6f4b63bebbf006005600084815260200190815260200160002060020160006101000a81548173ffffffffffffffffffffffffffffffffffffffff021916908373ffffffffffffffffffffffffffffffffffffffff1602179055508160056000848152602001908152602001600020600101819055506000600560008481526020019081526020016000206000018190555081905061090a565b600982036109095773a5766861a73c68fd3741e7808703ef2e97d2d4ac6005600084815260200190815260200160002060020160006101000a81548173ffffffffffffffffffffffffffffffffffffffff021916908373ffffffffffffffffffffffffffffffffffffffff1602179055508160056000848152602001908152602001600020600101819055506000600560008481526020019081526020016000206000018190555081905061090a565b5b919050565b60026005600083815260200190815260200160002060008201548160000155600182015481600101556002820160009054906101000a900473ffffffffffffffffffffffffffffffffffffffff168160020160006101000a81548173ffffffffffffffffffffffffffffffffffffffff021916908373ffffffffffffffffffffffffffffffffffffffff160217905550905050600154600260000160008282546109b99190610bb4565b925050819055506002800160009054906101000a900473ffffffffffffffffffffffffffffffffffffffff1673ffffffffffffffffffffffffffffffffffffffff166108fc6001549081150290604051600060405180830381858888f19350505050158015610a2c573d6000803e3d6000fd5b5050565b60008160018190559050919050565b600080fd5b6000819050919050565b610a5781610a44565b8114610a6257600080fd5b50565b600081359050610a7481610a4e565b92915050565b600060208284031215610a9057610a8f610a3f565b5b6000610a9e84828501610a65565b91505092915050565b610ab081610a44565b82525050565b600073ffffffffffffffffffffffffffffffffffffffff82169050919050565b6000610ae182610ab6565b9050919050565b610af181610ad6565b82525050565b6000606082019050610b0c6000830186610aa7565b610b196020830185610aa7565b610b266040830184610ae8565b949350505050565b6000610b3982610ab6565b9050919050565b610b4981610b2e565b82525050565b6000602082019050610b646000830184610b40565b92915050565b6000602082019050610b7f6000830184610aa7565b92915050565b7f4e487b7100000000000000000000000000000000000000000000000000000000600052601160045260246000fd5b6000610bbf82610a44565b9150610bca83610a44565b9250828201905080821115610be257610be1610b85565b5b9291505056fea2646970667358221220e55ae85b3f144184160e30deaa67ccbc4dd4cca577cd0e185537b6aca333a1aa64736f6c63430008110033",
  "immutableReferences": {},
  "source": "////SPDX-License-Identifier: UNLICENSED\npragma solidity 0.8.17;\ncontract Contract {\n\n    address payable owner; //deployer address\n    //address payable[] countryAddresses; //country addresses for each wallet \n    uint value; //amount user wants to send\n    \n  \n    constructor(uint _value) public {\n        owner = payable(msg.sender);\n        //countryAddresses = addresses_;\n        value = _value;\n    }\n\n    struct Country {\n        uint Wallet;\n        uint id;\n        address payable currentCountry;\n    }\n\n    Country country;\n    mapping(uint => Country) public countries;\n\n    function populateCountries(uint id) public returns (uint index){\n        if(id == 0){\n            countries[id].currentCountry = payable(0xdA9C2a08dfbe45884a3C0D98F3E5C93486b78dD3);\n            countries[id].id = id;\n            countries[id].Wallet = 0;\n            return id;\n        } else if(id == 1){\n            countries[id].currentCountry = payable(0x4fD39dA788e988F40a65467cefd8000bfbdE38db);\n            countries[id].id = id;\n            countries[id].Wallet = 0;\n            return id;\n        } else if(id == 2){\n            countries[id].currentCountry = payable(0x067446404781187064cEcF933e75c972b9b5fdF0);\n            countries[id].id = id;\n            countries[id].Wallet = 0;\n            return id;\n        } else if(id == 3){\n            countries[id].currentCountry = payable(0x07d80AFd56Be11deb92798193860b51711b54213);\n            countries[id].id = id;\n            countries[id].Wallet = 0;\n            return id;\n        } else if(id == 4){\n            countries[id].currentCountry = payable(0x47432f243FE438e8505092dD3d3b4c4A775F3e88);\n            countries[id].id = id;\n            countries[id].Wallet = 0;\n            return id;\n        } else if(id == 5){\n            countries[id].currentCountry = payable(0xe8aD7553fE29415086842ca17eE1D81d886B6e9a);\n            countries[id].id = id;\n            countries[id].Wallet = 0;\n            return id;\n        } else if(id == 6){\n            countries[id].currentCountry = payable(0x903164A2dF153ccb9CD549F03aAb5Dbc8E8AE8C9);\n            countries[id].id = id;\n            countries[id].Wallet = 0;\n            return id;\n        } else if(id == 7){\n            countries[id].currentCountry = payable(0xc37bA4643C5d451170289f84045F6bc0C26C79d0);\n            countries[id].id = id;\n            countries[id].Wallet = 0;\n            return id;\n        } else if(id == 8){\n            countries[id].currentCountry = payable(0x3188194F9BC101278D67dFc2C5E6F4b63BEBBf00);\n            countries[id].id = id;\n            countries[id].Wallet = 0;\n            return id;\n        } else if(id == 9){\n            countries[id].currentCountry = payable(0xa5766861A73c68fD3741E7808703EF2e97d2D4Ac);\n            countries[id].id = id;\n            countries[id].Wallet = 0;\n            return id;\n        }\n    }\n\n    function getAmount(uint _amount) public returns (uint){\n        return value = _amount;\n    }\n\n    function viewUser() public view returns(address){\n        return owner;\n    }\n\n/*\n    function printAddress() public view returns (address payable[] memory){\n        return countryAddresses;\n    }\n*/\n\n    function payCountry(uint id) public payable {\n        countries[id] = country;\n        country.Wallet += value;\n        country.currentCountry.transfer(value);\n    }\n\n    function closeContract() public \n    { \n        selfdestruct(owner);\n    }\n\n    receive() external payable {}\n    \n}",
  "sourcePath": "/Users/fcap/Desktop/Leaky-Faucet/contracts/Faucet.sol",
  "compiler": {
    "name": "solc",
    "version": "0.8.17+commit.8df45f5f.Emscripten.clang"
  },
  "schemaVersion": "3.4.10",
  "updatedAt": "2022-12-01T21:19:03.015Z",
  "devdoc": {
    "kind": "dev",
    "methods": {},
    "version": 1
  },
  "userdoc": {
    "kind": "user",
    "methods": {},
    "version": 1
  }
}