{
  "contractName": "Faucet",
  "abi": [
    {
      "inputs": [
        {
          "internalType": "uint256",
          "name": "_value",
          "type": "uint256"
        }
      ],
      "stateMutability": "nonpayable",
      "type": "constructor"
    },
    {
      "inputs": [
        {
          "internalType": "uint256",
          "name": "",
          "type": "uint256"
        }
      ],
      "name": "countries",
      "outputs": [
        {
          "internalType": "uint256",
          "name": "Wallet",
          "type": "uint256"
        },
        {
          "internalType": "uint256",
          "name": "id",
          "type": "uint256"
        },
        {
          "internalType": "address payable",
          "name": "currentCountry",
          "type": "address"
        }
      ],
      "stateMutability": "view",
      "type": "function"
    },
    {
      "stateMutability": "payable",
      "type": "receive"
    },
    {
      "inputs": [
        {
          "internalType": "uint256",
          "name": "id",
          "type": "uint256"
        }
      ],
      "name": "populateCountries",
      "outputs": [
        {
          "internalType": "uint256",
          "name": "index",
          "type": "uint256"
        }
      ],
      "stateMutability": "nonpayable",
      "type": "function"
    },
    {
      "inputs": [
        {
          "internalType": "uint256",
          "name": "id",
          "type": "uint256"
        }
      ],
      "name": "getCountryAddr",
      "outputs": [
        {
          "internalType": "address",
          "name": "",
          "type": "address"
        }
      ],
      "stateMutability": "view",
      "type": "function"
    },
    {
      "inputs": [
        {
          "internalType": "uint256",
          "name": "_amount",
          "type": "uint256"
        }
      ],
      "name": "getAmount",
      "outputs": [
        {
          "internalType": "uint256",
          "name": "",
          "type": "uint256"
        }
      ],
      "stateMutability": "nonpayable",
      "type": "function"
    },
    {
      "inputs": [],
      "name": "viewUser",
      "outputs": [
        {
          "internalType": "address",
          "name": "",
          "type": "address"
        }
      ],
      "stateMutability": "view",
      "type": "function"
    },
    {
      "inputs": [
        {
          "internalType": "uint256",
          "name": "id",
          "type": "uint256"
        }
      ],
      "name": "payCountry",
      "outputs": [],
      "stateMutability": "payable",
      "type": "function"
    },
    {
      "inputs": [],
      "name": "closeContract",
      "outputs": [],
      "stateMutability": "nonpayable",
      "type": "function"
    }
  ],
  "bytecode": "0x608060405234801561001057600080fd5b50604051610dac380380610dac833981810160405281019061003291906100ba565b336000806101000a81548173ffffffffffffffffffffffffffffffffffffffff021916908373ffffffffffffffffffffffffffffffffffffffff16021790555080600181905550506100e7565b600080fd5b6000819050919050565b61009781610084565b81146100a257600080fd5b50565b6000815190506100b48161008e565b92915050565b6000602082840312156100d0576100cf61007f565b5b60006100de848285016100a5565b91505092915050565b610cb6806100f66000396000f3fe6080604052600436106100745760003560e01c806376c475371161004e57806376c4753714610101578063959f35791461013e5780639980ec861461015a578063d57b593f146101975761007b565b806308e9daa5146100805780635760e20b146100bf578063610be654146100ea5761007b565b3661007b57005b600080fd5b34801561008c57600080fd5b506100a760048036038101906100a29190610b12565b6101d4565b6040516100b693929190610b8f565b60405180910390f35b3480156100cb57600080fd5b506100d461021e565b6040516100e19190610be7565b60405180910390f35b3480156100f657600080fd5b506100ff610247565b005b34801561010d57600080fd5b5061012860048036038101906101239190610b12565b610280565b6040516101359190610c02565b60405180910390f35b61015860048036038101906101539190610b12565b610967565b005b34801561016657600080fd5b50610181600480360381019061017c9190610b12565b610a88565b60405161018e9190610c02565b60405180910390f35b3480156101a357600080fd5b506101be60048036038101906101b99190610b12565b610a97565b6040516101cb9190610be7565b60405180910390f35b60056020528060005260406000206000915090508060000154908060010154908060020160009054906101000a900473ffffffffffffffffffffffffffffffffffffffff16905083565b60008060009054906101000a900473ffffffffffffffffffffffffffffffffffffffff16905090565b60008054906101000a900473ffffffffffffffffffffffffffffffffffffffff1673ffffffffffffffffffffffffffffffffffffffff16ff5b60008082036103315773da9c2a08dfbe45884a3c0d98f3e5c93486b78dd36005600084815260200190815260200160002060020160006101000a81548173ffffffffffffffffffffffffffffffffffffffff021916908373ffffffffffffffffffffffffffffffffffffffff16021790555081600560008481526020019081526020016000206001018190555060006005600084815260200190815260200160002060000181905550819050610962565b600182036103e157734fd39da788e988f40a65467cefd8000bfbde38db6005600084815260200190815260200160002060020160006101000a81548173ffffffffffffffffffffffffffffffffffffffff021916908373ffffffffffffffffffffffffffffffffffffffff16021790555081600560008481526020019081526020016000206001018190555060006005600084815260200190815260200160002060000181905550819050610962565b600282036104915773067446404781187064cecf933e75c972b9b5fdf06005600084815260200190815260200160002060020160006101000a81548173ffffffffffffffffffffffffffffffffffffffff021916908373ffffffffffffffffffffffffffffffffffffffff16021790555081600560008481526020019081526020016000206001018190555060006005600084815260200190815260200160002060000181905550819050610962565b60038203610541577307d80afd56be11deb92798193860b51711b542136005600084815260200190815260200160002060020160006101000a81548173ffffffffffffffffffffffffffffffffffffffff021916908373ffffffffffffffffffffffffffffffffffffffff16021790555081600560008481526020019081526020016000206001018190555060006005600084815260200190815260200160002060000181905550819050610962565b600482036105f1577347432f243fe438e8505092dd3d3b4c4a775f3e886005600084815260200190815260200160002060020160006101000a81548173ffffffffffffffffffffffffffffffffffffffff021916908373ffffffffffffffffffffffffffffffffffffffff16021790555081600560008481526020019081526020016000206001018190555060006005600084815260200190815260200160002060000181905550819050610962565b600582036106a15773e8ad7553fe29415086842ca17ee1d81d886b6e9a6005600084815260200190815260200160002060020160006101000a81548173ffffffffffffffffffffffffffffffffffffffff021916908373ffffffffffffffffffffffffffffffffffffffff16021790555081600560008481526020019081526020016000206001018190555060006005600084815260200190815260200160002060000181905550819050610962565b600682036107515773903164a2df153ccb9cd549f03aab5dbc8e8ae8c96005600084815260200190815260200160002060020160006101000a81548173ffffffffffffffffffffffffffffffffffffffff021916908373ffffffffffffffffffffffffffffffffffffffff16021790555081600560008481526020019081526020016000206001018190555060006005600084815260200190815260200160002060000181905550819050610962565b600782036108015773c37ba4643c5d451170289f84045f6bc0c26c79d06005600084815260200190815260200160002060020160006101000a81548173ffffffffffffffffffffffffffffffffffffffff021916908373ffffffffffffffffffffffffffffffffffffffff16021790555081600560008481526020019081526020016000206001018190555060006005600084815260200190815260200160002060000181905550819050610962565b600882036108b157733188194f9bc101278d67dfc2c5e6f4b63bebbf006005600084815260200190815260200160002060020160006101000a81548173ffffffffffffffffffffffffffffffffffffffff021916908373ffffffffffffffffffffffffffffffffffffffff16021790555081600560008481526020019081526020016000206001018190555060006005600084815260200190815260200160002060000181905550819050610962565b600982036109615773a5766861a73c68fd3741e7808703ef2e97d2d4ac6005600084815260200190815260200160002060020160006101000a81548173ffffffffffffffffffffffffffffffffffffffff021916908373ffffffffffffffffffffffffffffffffffffffff16021790555081600560008481526020019081526020016000206001018190555060006005600084815260200190815260200160002060000181905550819050610962565b5b919050565b60026005600083815260200190815260200160002060008201548160000155600182015481600101556002820160009054906101000a900473ffffffffffffffffffffffffffffffffffffffff168160020160006101000a81548173ffffffffffffffffffffffffffffffffffffffff021916908373ffffffffffffffffffffffffffffffffffffffff16021790555090505060015460026000016000828254610a119190610c4c565b925050819055506002800160009054906101000a900473ffffffffffffffffffffffffffffffffffffffff1673ffffffffffffffffffffffffffffffffffffffff166108fc6001549081150290604051600060405180830381858888f19350505050158015610a84573d6000803e3d6000fd5b5050565b60008160018190559050919050565b60006005600083815260200190815260200160002060020160009054906101000a900473ffffffffffffffffffffffffffffffffffffffff169050919050565b600080fd5b6000819050919050565b610aef81610adc565b8114610afa57600080fd5b50565b600081359050610b0c81610ae6565b92915050565b600060208284031215610b2857610b27610ad7565b5b6000610b3684828501610afd565b91505092915050565b610b4881610adc565b82525050565b600073ffffffffffffffffffffffffffffffffffffffff82169050919050565b6000610b7982610b4e565b9050919050565b610b8981610b6e565b82525050565b6000606082019050610ba46000830186610b3f565b610bb16020830185610b3f565b610bbe6040830184610b80565b949350505050565b6000610bd182610b4e565b9050919050565b610be181610bc6565b82525050565b6000602082019050610bfc6000830184610bd8565b92915050565b6000602082019050610c176000830184610b3f565b92915050565b7f4e487b7100000000000000000000000000000000000000000000000000000000600052601160045260246000fd5b6000610c5782610adc565b9150610c6283610adc565b9250828201905080821115610c7a57610c79610c1d565b5b9291505056fea26469706673582212206de2b55f27dd5fbe199e641bc35f34973fee2b80ca4715c877b2791633619acd64736f6c63430008110033",
  "immutableReferences": {},
  "source": "////SPDX-License-Identifier: UNLICENSED\npragma solidity ^0.8.0;\n\ninterface IERC20 {\n\n    function totalSupply() external view returns (uint256);\n    function balanceOf(address account) external view returns (uint256);\n    function allowance(address owner, address spender) external view returns (uint256);\n\n    function transfer(address recipient, uint256 amount) external returns (bool);\n    function approve(address spender, uint256 amount) external returns (bool);\n    function transferFrom(address sender, address recipient, uint256 amount) external returns (bool);\n\n\n    event Transfer(address indexed from, address indexed to, uint256 value);\n    event Approval(address indexed owner, address indexed spender, uint256 value);\n}\n\n\ncontract ERC20Basic is IERC20 {\n\n    string public constant name = \"Aqua\";\n    string public constant symbol = \"H2O\";\n    uint8 public constant decimals = 18;\n\n\n    mapping(address => uint256) balances;\n\n    mapping(address => mapping (address => uint256)) allowed;\n\n    uint256 totalSupply_ = 10 ether;\n\n\n   constructor() {\n    balances[msg.sender] = totalSupply_;\n    }\n\n    function totalSupply() public override view returns (uint256) {\n    return totalSupply_;\n    }\n\n    function balanceOf(address tokenOwner) public override view returns (uint256) {\n        return balances[tokenOwner];\n    }\n\n    function transfer(address receiver, uint256 numTokens) public override returns (bool) {\n        require(numTokens <= balances[msg.sender]);\n        balances[msg.sender] = balances[msg.sender]-numTokens;\n        balances[receiver] = balances[receiver]+numTokens;\n        emit Transfer(msg.sender, receiver, numTokens);\n        return true;\n    }\n\n    function approve(address delegate, uint256 numTokens) public override returns (bool) {\n        allowed[msg.sender][delegate] = numTokens;\n        emit Approval(msg.sender, delegate, numTokens);\n        return true;\n    }\n\n    function allowance(address owner, address delegate) public override view returns (uint) {\n        return allowed[owner][delegate];\n    }\n\n    function transferFrom(address owner, address buyer, uint256 numTokens) public override returns (bool) {\n        require(numTokens <= balances[owner]);\n        require(numTokens <= allowed[owner][msg.sender]);\n\n        balances[owner] = balances[owner]-numTokens;\n        allowed[owner][msg.sender] = allowed[owner][msg.sender]-numTokens;\n        balances[buyer] = balances[buyer]+numTokens;\n        emit Transfer(owner, buyer, numTokens);\n        return true;\n    }\n}\n\ncontract Faucet {\n\n    address payable owner; //deployer address\n    //address payable[] countryAddresses; //country addresses for each wallet \n    uint value; //amount user wants to send\n    \n  \n    constructor(uint _value) public {\n        owner = payable(msg.sender);\n        //countryAddresses = addresses_;\n        value = _value;\n    }\n\n    struct Country {\n        uint Wallet;\n        uint id;\n        address payable currentCountry;\n    }\n\n    Country country;\n    mapping(uint => Country) public countries;\n\n    function populateCountries(uint id) public returns (uint index){\n        if(id == 0){\n            countries[id].currentCountry = payable(0xdA9C2a08dfbe45884a3C0D98F3E5C93486b78dD3);\n            countries[id].id = id;\n            countries[id].Wallet = 0;\n            return id;\n        } else if(id == 1){\n            countries[id].currentCountry = payable(0x4fD39dA788e988F40a65467cefd8000bfbdE38db);\n            countries[id].id = id;\n            countries[id].Wallet = 0;\n            return id;\n        } else if(id == 2){\n            countries[id].currentCountry = payable(0x067446404781187064cEcF933e75c972b9b5fdF0);\n            countries[id].id = id;\n            countries[id].Wallet = 0;\n            return id;\n        } else if(id == 3){\n            countries[id].currentCountry = payable(0x07d80AFd56Be11deb92798193860b51711b54213);\n            countries[id].id = id;\n            countries[id].Wallet = 0;\n            return id;\n        } else if(id == 4){\n            countries[id].currentCountry = payable(0x47432f243FE438e8505092dD3d3b4c4A775F3e88);\n            countries[id].id = id;\n            countries[id].Wallet = 0;\n            return id;\n        } else if(id == 5){\n            countries[id].currentCountry = payable(0xe8aD7553fE29415086842ca17eE1D81d886B6e9a);\n            countries[id].id = id;\n            countries[id].Wallet = 0;\n            return id;\n        } else if(id == 6){\n            countries[id].currentCountry = payable(0x903164A2dF153ccb9CD549F03aAb5Dbc8E8AE8C9);\n            countries[id].id = id;\n            countries[id].Wallet = 0;\n            return id;\n        } else if(id == 7){\n            countries[id].currentCountry = payable(0xc37bA4643C5d451170289f84045F6bc0C26C79d0);\n            countries[id].id = id;\n            countries[id].Wallet = 0;\n            return id;\n        } else if(id == 8){\n            countries[id].currentCountry = payable(0x3188194F9BC101278D67dFc2C5E6F4b63BEBBf00);\n            countries[id].id = id;\n            countries[id].Wallet = 0;\n            return id;\n        } else if(id == 9){\n            countries[id].currentCountry = payable(0xa5766861A73c68fD3741E7808703EF2e97d2D4Ac);\n            countries[id].id = id;\n            countries[id].Wallet = 0;\n            return id;\n        }\n    }\n\n    function getCountryAddr(uint id) public view returns(address){\n        return countries[id].currentCountry;\n    }\n\n    function getAmount(uint _amount) public returns (uint){\n        return value = _amount;\n    }\n\n    function viewUser() public view returns(address){\n        return owner;\n    }\n\n/*\n    function printAddress() public view returns (address payable[] memory){\n        return countryAddresses;\n    }\n*/\n\n    function payCountry(uint id) public payable {\n        countries[id] = country;\n        country.Wallet += value;\n        country.currentCountry.transfer(value);\n    }\n\n    function closeContract() public \n    { \n        selfdestruct(owner);\n    }\n\n    receive() external payable {}\n    \n}",
  "sourcePath": "/Users/fcap/Desktop/Leaky-Faucet/contracts/Faucet.sol",
  "compiler": {
    "name": "solc",
    "version": "0.8.17+commit.8df45f5f.Emscripten.clang"
  },
  "schemaVersion": "3.4.10",
  "updatedAt": "2022-12-09T02:19:09.341Z",
  "devdoc": {
    "kind": "dev",
    "methods": {},
    "version": 1
  },
  "userdoc": {
    "kind": "user",
    "methods": {},
    "version": 1
  }
}